{"abi":[{"type":"function","name":"getAmountOut","inputs":[{"name":"tokenIn","type":"address","internalType":"address"},{"name":"tokenOut","type":"address","internalType":"address"},{"name":"amountIn","type":"uint256","internalType":"uint256"}],"outputs":[{"name":"","type":"uint256","internalType":"uint256"}],"stateMutability":"view"},{"type":"function","name":"getExchangeRate","inputs":[{"name":"tokenA","type":"address","internalType":"address"},{"name":"tokenB","type":"address","internalType":"address"}],"outputs":[{"name":"","type":"uint256","internalType":"uint256"}],"stateMutability":"view"},{"type":"function","name":"setPair","inputs":[{"name":"tokenA","type":"address","internalType":"address"},{"name":"tokenB","type":"address","internalType":"address"},{"name":"rate","type":"uint256","internalType":"uint256"}],"outputs":[],"stateMutability":"nonpayable"},{"type":"function","name":"swap","inputs":[{"name":"tokenIn","type":"address","internalType":"address"},{"name":"tokenOut","type":"address","internalType":"address"},{"name":"amountIn","type":"uint256","internalType":"uint256"},{"name":"minAmountOut","type":"uint256","internalType":"uint256"},{"name":"recipient","type":"address","internalType":"address"}],"outputs":[{"name":"amountOut","type":"uint256","internalType":"uint256"}],"stateMutability":"nonpayable"},{"type":"function","name":"updateExchangeRate","inputs":[{"name":"tokenA","type":"address","internalType":"address"},{"name":"tokenB","type":"address","internalType":"address"},{"name":"newRate","type":"uint256","internalType":"uint256"}],"outputs":[],"stateMutability":"nonpayable"},{"type":"event","name":"Swap","inputs":[{"name":"tokenIn","type":"address","indexed":true,"internalType":"address"},{"name":"tokenOut","type":"address","indexed":true,"internalType":"address"},{"name":"amountIn","type":"uint256","indexed":false,"internalType":"uint256"},{"name":"amountOut","type":"uint256","indexed":false,"internalType":"uint256"}],"anonymous":false}],"bytecode":{"object":"0x60808060405234610016576105fd908161001b8239f35b5f80fdfe60406080815260049081361015610014575f80fd5b5f90813560e01c806327990a44146104185780634aa066521461041d57806379e359d814610418578063baaa61be146103d15763d5bcb9b514610055575f80fd5b346103cd5760a03660031901126103cd5761006e61043f565b610076610459565b604494853590608435966001600160a01b03938489168099036103c9578486169485156103875781169586156103455784156103035789156102c1576100bd9185916104d8565b96606435881061027f578651987f23b872dd000000000000000000000000000000000000000000000000000000008a5233848b01523060248b015284838b01526020998a81606481868b5af1908115610275578391610258575b5015610217578751907fa9059cbb0000000000000000000000000000000000000000000000000000000082528482015288602482015289818481858b5af191821561020c57916101df575b501561019e575050837ffa2dda1cc1b86e41239702756b13effbc1a092b5c57e3ad320fbe4f3b13fe2359181519081528688820152a351908152f35b907f5472616e73666572206f7574206661696c6564000000000000000000000000006064928988519362461bcd60e51b855284015260136024840152820152fd5b6101ff9150893d8b11610205575b6101f78183610579565b8101906105af565b5f610162565b503d6101ed565b8851903d90823e3d90fd5b6064847f5472616e7366657220696e206661696c65640000000000000000000000000000858d8c519362461bcd60e51b855284015260126024840152820152fd5b61026f91508b3d8d11610205576101f78183610579565b5f610117565b89513d85823e3d90fd5b6064837f496e73756666696369656e74206f757470757420616d6f756e740000000000008460208b519362461bcd60e51b8552840152601a6024840152820152fd5b6064847f496e76616c696420726563697069656e740000000000000000000000000000008560208c519362461bcd60e51b855284015260116024840152820152fd5b6064847f496e76616c696420616d6f756e740000000000000000000000000000000000008560208c519362461bcd60e51b8552840152600e6024840152820152fd5b6064847f496e76616c696420746f6b656e206f75740000000000000000000000000000008560208c519362461bcd60e51b855284015260116024840152820152fd5b6064847f496e76616c696420746f6b656e20696e000000000000000000000000000000008560208c519362461bcd60e51b855284015260106024840152820152fd5b8780fd5b5080fd5b50346103cd57806003193601126103cd57806020926103ee61043f565b6103f6610459565b6001600160a01b03918216835282865283832091168252845220549051908152f35b6104a4565b50346103cd576020906104386104323661046f565b916104d8565b9051908152f35b600435906001600160a01b038216820361045557565b5f80fd5b602435906001600160a01b038216820361045557565b6060906003190112610455576001600160a01b0390600435828116810361045557916024359081168103610455579060443590565b34610455576104b23661046f565b906001600160a01b03805f94168452836020526040842091168352602052604082205580f35b906001600160a01b03805f931683528260205260408320911682526020526040812054918215610535578281029281840414901517156105215750670de0b6b3a7640000900490565b80634e487b7160e01b602492526011600452fd5b606460405162461bcd60e51b815260206004820152600c60248201527f52617465206e6f742073657400000000000000000000000000000000000000006044820152fd5b90601f8019910116810190811067ffffffffffffffff82111761059b57604052565b634e487b7160e01b5f52604160045260245ffd5b9081602091031261045557518015158103610455579056fea2646970667358221220054b8c43ce0557b7f1a71554a2e88540377f8c8d46702ddf16b37ffa6226f52764736f6c63430008140033","linkReferences":{}},"methodIdentifiers":{"getAmountOut(address,address,uint256)":"4aa06652","getExchangeRate(address,address)":"baaa61be","setPair(address,address,uint256)":"27990a44","swap(address,address,uint256,uint256,address)":"d5bcb9b5","updateExchangeRate(address,address,uint256)":"79e359d8"},"id":34}