{"abi":[{"type":"function","name":"increment","inputs":[],"outputs":[],"stateMutability":"nonpayable"},{"type":"function","name":"number","inputs":[],"outputs":[{"name":"","type":"uint256","internalType":"uint256"}],"stateMutability":"view"},{"type":"function","name":"setNumber","inputs":[{"name":"newNumber","type":"uint256","internalType":"uint256"}],"outputs":[],"stateMutability":"nonpayable"}],"bytecode":{"object":"0x608080604052346100155760f4908161001a8239f35b5f80fdfe60808060405260043610156011575f80fd5b5f90813560e01c9081633fb5c1cb1460a65781638381f58a14608a575063d09de08a14603b575f80fd5b346087578060031936011260875780545f198114605a57600101815580f35b6024827f4e487b710000000000000000000000000000000000000000000000000000000081526011600452fd5b80fd5b90503460a2578160031936011260a257602091548152f35b5080fd5b82346087576020366003190112608757600435815580f3fea2646970667358221220edf0b59c1cea14760ef4efc2b99b827b3e67a8535ce83b73d4c4ddf2f29b3d5364736f6c63430008140033","linkReferences":{}},"methodIdentifiers":{"increment()":"d09de08a","number()":"8381f58a","setNumber(uint256)":"3fb5c1cb"},"id":30}