{"abi":[{"type":"constructor","inputs":[{"name":"minProfitThreshold_","type":"uint256","internalType":"uint256"}],"stateMutability":"nonpayable"},{"type":"function","name":"addAuthorizedExecutor","inputs":[{"name":"executor","type":"address","internalType":"address"}],"outputs":[],"stateMutability":"nonpayable"},{"type":"function","name":"emergencyWithdraw","inputs":[{"name":"token","type":"address","internalType":"address"},{"name":"recipient","type":"address","internalType":"address"},{"name":"amount","type":"uint256","internalType":"uint256"}],"outputs":[],"stateMutability":"nonpayable"},{"type":"function","name":"executeArbitrage","inputs":[{"name":"sourceRouter","type":"address","internalType":"address"},{"name":"targetRouter","type":"address","internalType":"address"},{"name":"tokenIn","type":"address","internalType":"address"},{"name":"tokenOut","type":"address","internalType":"address"},{"name":"amountIn","type":"uint256","internalType":"uint256"},{"name":"sourceData","type":"bytes","internalType":"bytes"},{"name":"targetData","type":"bytes","internalType":"bytes"}],"outputs":[],"stateMutability":"nonpayable"},{"type":"function","name":"getMinProfitThreshold","inputs":[],"outputs":[{"name":"","type":"uint256","internalType":"uint256"}],"stateMutability":"view"},{"type":"function","name":"isAuthorizedExecutor","inputs":[{"name":"executor","type":"address","internalType":"address"}],"outputs":[{"name":"","type":"bool","internalType":"bool"}],"stateMutability":"view"},{"type":"function","name":"isPaused","inputs":[],"outputs":[{"name":"","type":"bool","internalType":"bool"}],"stateMutability":"view"},{"type":"function","name":"owner","inputs":[],"outputs":[{"name":"","type":"address","internalType":"address"}],"stateMutability":"view"},{"type":"function","name":"pause","inputs":[],"outputs":[],"stateMutability":"nonpayable"},{"type":"function","name":"removeAuthorizedExecutor","inputs":[{"name":"executor","type":"address","internalType":"address"}],"outputs":[],"stateMutability":"nonpayable"},{"type":"function","name":"renounceOwnership","inputs":[],"outputs":[],"stateMutability":"nonpayable"},{"type":"function","name":"setMinProfitThreshold","inputs":[{"name":"threshold","type":"uint256","internalType":"uint256"}],"outputs":[],"stateMutability":"nonpayable"},{"type":"function","name":"transferOwnership","inputs":[{"name":"newOwner","type":"address","internalType":"address"}],"outputs":[],"stateMutability":"nonpayable"},{"type":"function","name":"unpause","inputs":[],"outputs":[],"stateMutability":"nonpayable"},{"type":"event","name":"ArbitrageExecuted","inputs":[{"name":"executor","type":"address","indexed":true,"internalType":"address"},{"name":"tokenIn","type":"address","indexed":true,"internalType":"address"},{"name":"tokenOut","type":"address","indexed":true,"internalType":"address"},{"name":"amountIn","type":"uint256","indexed":false,"internalType":"uint256"},{"name":"amountOut","type":"uint256","indexed":false,"internalType":"uint256"},{"name":"profit","type":"uint256","indexed":false,"internalType":"uint256"},{"name":"timestamp","type":"uint256","indexed":false,"internalType":"uint256"}],"anonymous":false},{"type":"event","name":"EmergencyWithdraw","inputs":[{"name":"token","type":"address","indexed":true,"internalType":"address"},{"name":"recipient","type":"address","indexed":true,"internalType":"address"},{"name":"amount","type":"uint256","indexed":false,"internalType":"uint256"},{"name":"timestamp","type":"uint256","indexed":false,"internalType":"uint256"}],"anonymous":false},{"type":"event","name":"OwnershipTransferred","inputs":[{"name":"previousOwner","type":"address","indexed":true,"internalType":"address"},{"name":"newOwner","type":"address","indexed":true,"internalType":"address"}],"anonymous":false},{"type":"error","name":"ContractPaused","inputs":[]},{"type":"error","name":"InsufficientBalance","inputs":[]},{"type":"error","name":"InvalidAddress","inputs":[]},{"type":"error","name":"InvalidAmount","inputs":[]},{"type":"error","name":"NoTokensReceived","inputs":[]},{"type":"error","name":"NotAuthorized","inputs":[]},{"type":"error","name":"NothingToWithdraw","inputs":[]},{"type":"error","name":"OwnableInvalidOwner","inputs":[{"name":"owner","type":"address","internalType":"address"}]},{"type":"error","name":"OwnableUnauthorizedAccount","inputs":[{"name":"account","type":"address","internalType":"address"}]},{"type":"error","name":"ProfitBelowThreshold","inputs":[]},{"type":"error","name":"ReentrancyGuardReentrantCall","inputs":[]},{"type":"error","name":"SwapFailed","inputs":[]},{"type":"error","name":"TransferFailed","inputs":[]}],"bytecode":{"object":"0x6080346100d157601f610d6938819003918201601f19168301916001600160401b038311848410176100d5578084926020946040528339810103126100d157515f6001815533156100b95760018054336001600160a01b031982168117909255604080519490939290916001600160a01b03167f8be0079c531659141344cd1fd0a4f28419497f9722a3daafe3b4186f6b6457e08480a3600255338152600360205220805460ff19166001179055610c7f90816100ea8239f35b60249060405190631e4fbdf760e01b82526004820152fd5b5f80fd5b634e487b7160e01b5f52604160045260245ffdfe60406080815260049081361015610014575f80fd5b5f91823560e01c9081633f4ba83a14610af1578163462bdfa614610ab55781634e579ed81461054857816360c7bae214610508578163715018a6146104a05781638456cb591461045d5781638da5cb5b14610435578163b187bd261461040e578163b2a7f494146103b5578163c028646514610393578163e63ea40814610183578163f2fde38b146100d0575063fb34fd12146100af575f80fd5b346100cc57816003193601126100cc576020906002549051908152f35b5080fd5b90503461017f57602036600319011261017f576100eb610b1a565b906100f4610b78565b6001600160a01b038092169283156101505750506001548273ffffffffffffffffffffffffffffffffffffffff19821617600155167f8be0079c531659141344cd1fd0a4f28419497f9722a3daafe3b4186f6b6457e08380a380f35b908460249251917f1e4fbdf7000000000000000000000000000000000000000000000000000000008352820152fd5b8280fd5b9190503461017f57606036600319011261017f5761019f610b1a565b906101a8610b34565b6044356101b3610b78565b6001600160a01b03809416938415610384578216948515610376578351916370a0823160e01b8352308284015260209283816024818a5afa90811561036c57899161033b575b5081151580610331575b156103295750925b83156103015784517fa9059cbb0000000000000000000000000000000000000000000000000000000081526001600160a01b039091168282019081526020810185905283908290819060400103818b8a5af19081156102f75788916102ca575b50156102a35750825191825242908201527f1401b6ff3b281e84fd77353369caed48ba7e787dd3821db05cc00643736082019190a380f35b83517f90b8ec18000000000000000000000000000000000000000000000000000000008152fd5b6102ea9150833d85116102f0575b6102e28183610bbc565b810190610bf2565b5f61026b565b503d6102d8565b85513d8a823e3d90fd5b5083517fd0d04f60000000000000000000000000000000000000000000000000000000008152fd5b90509261020b565b5080821115610203565b90508381813d8311610365575b6103528183610bbc565b8101031261036157515f6101f9565b8880fd5b503d610348565b86513d8b823e3d90fd5b835163e6c4247b60e01b8152fd5b85845163e6c4247b60e01b8152fd5b8390346100cc5760203660031901126100cc576103ae610b78565b3560025580f35b90503461017f57602036600319011261017f576001600160a01b036103d8610b1a565b6103e0610b78565b169081156104005750825260036020528120805460ff1916600117905580f35b825163e6c4247b60e01b8152fd5b5050346100cc57816003193601126100cc5760209060ff60015460a01c1690519015158152f35b5050346100cc57816003193601126100cc576020906001600160a01b03600154169051908152f35b833461049d578060031936011261049d57610476610b78565b7401000000000000000000000000000000000000000060ff60a01b19600154161760015580f35b80fd5b833461049d578060031936011261049d576104b9610b78565b806001600160a01b0360015473ffffffffffffffffffffffffffffffffffffffff198116600155167f8be0079c531659141344cd1fd0a4f28419497f9722a3daafe3b4186f6b6457e08280a380f35b5050346100cc5760203660031901126100cc576001600160a01b0361052b610b1a565b610533610b78565b16825260036020528120805460ff1916905580f35b9190503461017f5760e036600319011261017f57610564610b1a565b9161056d610b34565b90604435926001600160a01b0392838516809503610ab15760643595848716809703610aad576084359467ffffffffffffffff9160a435838111610aa9576105b89036908801610b4a565b909360c435908111610aa5576105d19036908901610b4a565b94909360028d5414610a7d5760028d5560015460ff8160a01c16610a5557908d979695949392913389528160ff8b60209b60038d52205416159182610a47575b5050610a1f5780841615610a1057861615610a01578a15610a01578b15610a015789156109d95791889593918d95936024898e8c51928380926370a0823160e01b9d8e835230908301525afa9788156109ce579761099b575b508b871061097357918e918b93838f8f8d918f916106cc92519485809481938b7f095ea7b3000000000000000000000000000000000000000000000000000000009e8f85528401602090939291936001600160a01b0360408201951681520152565b03925af180156109695791838e8e8897969594889561094b575b5050519384928337810182815203925af16106ff610c0a565b501561093c57908695949392918c8e988b60248c51809481938c835230908301525afa98891561093157986108fe575b5087156108d6579087878f958f8d888398978f61076d90519788968795869485528401602090939291936001600160a01b0360408201951681520152565b03925af180156108cc5791859493929185926108af575b50828b519384928337810182815203925af161079e610c0a565b50156108a0578451918252308683015282826024818b5afa918215610896578a92610863575b508082111561085a57810390811161084757935b6002548510610820575082519485528401528201524260608201527f41ba50773f63bb94789f7771ea97f6bd45759fe4e7bc725b78538f616ee295f160803392a46001815580f35b83517f46166c45000000000000000000000000000000000000000000000000000000008152fd5b602489601187634e487b7160e01b835252fd5b505087936107d8565b9091508281813d831161088f575b61087b8183610bbc565b8101031261088b5751905f6107c4565b8980fd5b503d610871565b85513d8c823e3d90fd5b85855163081ceff360e41b8152fd5b6108c5908a3d8c116102f0576102e28183610bbc565b505f610784565b8a513d87823e3d90fd5b8989517f9671a89f000000000000000000000000000000000000000000000000000000008152fd5b9097508681813d831161092a575b6109168183610bbc565b810103126109265751965f61072f565b8d80fd5b503d61090c565b8a51903d90823e3d90fd5b88885163081ceff360e41b8152fd5b8161096192903d106102f0576102e28183610bbc565b508e5f6106e6565b8d513d87823e3d90fd5b8a8a517ff4d678b8000000000000000000000000000000000000000000000000000000008152fd5b9096508881813d83116109c7575b6109b38183610bbc565b810103126109c35751955f61066a565b8e80fd5b503d6109a9565b8b51903d90823e3d90fd5b8888517f2c5211c6000000000000000000000000000000000000000000000000000000008152fd5b88885163e6c4247b60e01b8152fd5b89895163e6c4247b60e01b8152fd5b8989517fea8e4eb5000000000000000000000000000000000000000000000000000000008152fd5b90915016331415815f610611565b8989517fab35696f000000000000000000000000000000000000000000000000000000008152fd5b8888517f3ee5aeb5000000000000000000000000000000000000000000000000000000008152fd5b8b80fd5b8a80fd5b8780fd5b8680fd5b5050346100cc5760203660031901126100cc5760ff816020936001600160a01b03610ade610b1a565b1681526003855220541690519015158152f35b833461049d578060031936011261049d57610b0a610b78565b60ff60a01b196001541660015580f35b600435906001600160a01b0382168203610b3057565b5f80fd5b602435906001600160a01b0382168203610b3057565b9181601f84011215610b305782359167ffffffffffffffff8311610b305760208381860195010111610b3057565b6001600160a01b03600154163303610b8c57565b60246040517f118cdaa7000000000000000000000000000000000000000000000000000000008152336004820152fd5b90601f8019910116810190811067ffffffffffffffff821117610bde57604052565b634e487b7160e01b5f52604160045260245ffd5b90816020910312610b3057518015158103610b305790565b3d15610c44573d9067ffffffffffffffff8211610bde5760405191610c39601f8201601f191660200184610bbc565b82523d5f602084013e565b60609056fea26469706673582212206d862b256dd925e1fd88b5c4fbe555aa41e886e644ac938098fb5265d1de185864736f6c63430008140033","linkReferences":{}},"methodIdentifiers":{"addAuthorizedExecutor(address)":"b2a7f494","emergencyWithdraw(address,address,uint256)":"e63ea408","executeArbitrage(address,address,address,address,uint256,bytes,bytes)":"4e579ed8","getMinProfitThreshold()":"fb34fd12","isAuthorizedExecutor(address)":"462bdfa6","isPaused()":"b187bd26","owner()":"8da5cb5b","pause()":"8456cb59","removeAuthorizedExecutor(address)":"60c7bae2","renounceOwnership()":"715018a6","setMinProfitThreshold(uint256)":"c0286465","transferOwnership(address)":"f2fde38b","unpause()":"3f4ba83a"},"id":29}