{"abi":[{"type":"function","name":"checkArbitrageOpportunity","inputs":[{"name":"dex1","type":"address","internalType":"address"},{"name":"dex2","type":"address","internalType":"address"},{"name":"tokenA","type":"address","internalType":"address"},{"name":"tokenB","type":"address","internalType":"address"},{"name":"amount","type":"uint256","internalType":"uint256"}],"outputs":[{"name":"profitable","type":"bool","internalType":"bool"},{"name":"profit","type":"int256","internalType":"int256"}],"stateMutability":"view"},{"type":"function","name":"executeArbitrage","inputs":[{"name":"flashLoanProvider","type":"address","internalType":"address"},{"name":"tokenBorrow","type":"address","internalType":"address"},{"name":"borrowAmount","type":"uint256","internalType":"uint256"},{"name":"dex1","type":"address","internalType":"address"},{"name":"dex2","type":"address","internalType":"address"},{"name":"tokenTarget","type":"address","internalType":"address"}],"outputs":[],"stateMutability":"nonpayable"},{"type":"function","name":"executeOperation","inputs":[{"name":"token","type":"address","internalType":"address"},{"name":"amount","type":"uint256","internalType":"uint256"},{"name":"fee","type":"uint256","internalType":"uint256"},{"name":"params","type":"bytes","internalType":"bytes"}],"outputs":[{"name":"","type":"bool","internalType":"bool"}],"stateMutability":"nonpayable"},{"type":"event","name":"ArbitrageExecuted","inputs":[{"name":"flashLoanProvider","type":"address","indexed":true,"internalType":"address"},{"name":"tokenBorrow","type":"address","indexed":true,"internalType":"address"},{"name":"borrowAmount","type":"uint256","indexed":false,"internalType":"uint256"},{"name":"sourceDex","type":"address","indexed":true,"internalType":"address"},{"name":"targetDex","type":"address","indexed":false,"internalType":"address"},{"name":"tokenTarget","type":"address","indexed":false,"internalType":"address"},{"name":"profit","type":"uint256","indexed":false,"internalType":"uint256"},{"name":"pathUsed","type":"uint8","indexed":false,"internalType":"uint8"}],"anonymous":false}],"bytecode":{"object":"0x60808060405234610016576111c7908161001b8239f35b5f80fdfe60806040526004361015610011575f80fd5b5f803560e01c806372bf1a44146106ec578063ee8725581461009f5763fa73615b1461003b575f80fd5b3461009c5760a036600319011261009c57610054610cc3565b61005c610cd9565b90604435906001600160a01b03821682036100985760409261008a92610080610cef565b9160843593610dd3565b825191151582526020820152f35b5f80fd5b80fd5b503461009c57608036600319011261009c576100b9610cc3565b906064359167ffffffffffffffff8084116106e857366023850112156106e85783600401359081116106e85783013660248201116106e8578360809103126106e4576040519261010884610d4d565b608461011660248301610d05565b9182865261012660448201610d05565b602087015261013760648201610d05565b6040870152013560ff811681036106e057606085015260405163095ea7b360e01b81526001600160a01b039091166004820152602480359082015260208180604481010381866001600160a01b0387165af1801561056d576106c1575b508251604080850151905163d5bcb9b560e01b81526001600160a01b0384811660048301529182166024808301919091523560448201525f606482015230608482015291602091839160a49183918891165af1801561056d57610696575b50602460206001600160a01b03604086015116604051928380926370a0823160e01b82523060048301525afa90811561056d578391610664575b50604084810151602080870151925163095ea7b360e01b81526001600160a01b03938416600482015260248101859052929091839160449183918991165af1801561065957916020916102d69361063c575b5081860151604080880151905163d5bcb9b560e01b81526001600160a01b039182166004820152868216602482015260448101939093525f6064840152306084840152919384929091169082908790829060a4820190565b03925af1801561056d57610611575b50604051916370a0823160e01b83523060048401526020836024816001600160a01b0386165afa9283156106045781936105d0575b50610329604435602435610d40565b80841061058c5761036f8460405161034081610d7d565b600e81527f46696e616c2062616c616e63653a00000000000000000000000000000000000060208201526110f8565b6103ae8160405161037f81610d7d565b601381527f52657175697265642072657061796d656e743a0000000000000000000000000060208201526110f8565b8084039384116105785760405163095ea7b360e01b815233600482015260248101829052602081604481866001600160a01b0389165af1801561056d579160209161043993610550575b506040517fa9059cbb000000000000000000000000000000000000000000000000000000008152336004820152602481019190915291829081906044820190565b0381856001600160a01b0388165af19182156105445791610515575b50156104d1576001600160a01b03908184511693826020820151169360ff6060856040850151169301511691604051956024358752602087015260408601526060850152608084015216907fadf0d064e4c3690f3e0ce84c15011f8e6b19a706386b1e390f576e091b1e521960a03392a4602060405160018152f35b606460405162461bcd60e51b815260206004820152601960248201527f52657061796d656e74207472616e73666572206661696c6564000000000000006044820152fd5b610537915060203d60201161053d575b61052f8183610d99565b810190611179565b5f610455565b503d610525565b604051903d90823e3d90fd5b61056690833d851161053d5761052f8183610d99565b505f6103f8565b6040513d85823e3d90fd5b602482634e487b7160e01b81526011600452fd5b606460405162461bcd60e51b815260206004820152601360248201527f496e73756666696369656e742070726f666974000000000000000000000000006044820152fd5b9092506020813d6020116105fc575b816105ec60209383610d99565b810103126100985751915f61031a565b3d91506105df565b50604051903d90823e3d90fd5b602090813d8311610635575b6106278183610d99565b81010312610098575f6102e5565b503d61061d565b61065290833d851161053d5761052f8183610d99565b505f61027e565b6040513d86823e3d90fd5b90506020813d60201161068e575b8161067f60209383610d99565b8101031261009857515f61022c565b3d9150610672565b602090813d83116106ba575b6106ac8183610d99565b81010312610098575f6101f2565b503d6106a2565b6106d99060203d60201161053d5761052f8183610d99565b505f610194565b8380fd5b5080fd5b8280fd5b503461009c5760c036600319011261009c57610706610cc3565b61070e610cd9565b610716610cef565b906084356001600160a01b0381168103610cbf576001600160a01b0360a4351660a43503610cbf576009604435026044358104600914604435151715610cab576127106107669104604435610d40565b9061076f611155565b50604051635d5530df60e11b81526001600160a01b03808516600483015260a43516602482015291602083806044810103816001600160a01b0389165afa928315610ca0578793610c68575b50604051635d5530df60e11b81526001600160a01b0360a435811660048301528516602482015290602082806044810103816001600160a01b038a165afa918215610c5d578892610c25575b50604051635d5530df60e11b81526001600160a01b03808716600483015260a43516602482015293602085806044810103816001600160a01b0388165afa948515610c1a578995610be2575b50604051635d5530df60e11b81526001600160a01b0360a435811660048301528716602482015290602082806044810103816001600160a01b0389165afa918215610bd7578a92610b9d575b506108e1936108cc6108cc6108d8866108d2956108d2670de0b6b3a7640000988980978194604435610d19565b04610d19565b04610dbb565b98604435610d19565b936108ea611155565b9480841380610b94575b15610b2257506001600160a01b0390811685521660208401526001604084015260608301525b60ff6040830193600182865116145f14610adf5761096c60405161093d81610d7d565b601c81527f457865637574696e6720706174683a2044455831202d3e2044455832000000006020820152611091565b6109af606085015160405161098081610d7d565b601081527f45787065637465642070726f6669743a0000000000000000000000000000000060208201526110f8565b6001600160a01b03828160208188511697015116965116918180604051926109d684610d4d565b88845260208401998a52606060408501948360a4351686520195865216976040519760208901525116604087015251166060850152511660808301526080825260a082019267ffffffffffffffff8411928085108417610acb579085929185604052813b156106e057838693916001600160a01b0385937fe0232b420000000000000000000000000000000000000000000000000000000085521660a482015260443560c4820152606060e4820152609f1990610a97610104820182611053565b0301925af1801561056d57610aaa578280f35b610ab7576040525f808280f35b602482634e487b7160e01b81526041600452fd5b602486634e487b7160e01b81526041600452fd5b610b1d604051610aee81610d7d565b601c81527f457865637574696e6720706174683a2044455832202d3e2044455831000000006020820152611091565b61096c565b925086831315610b50576001600160a01b03809216855216602084015260026040840152606083015261091a565b606460405162461bcd60e51b815260206004820152601260248201527f4e6f2070726f66697461626c65207061746800000000000000000000000000006044820152fd5b508784136108f4565b9091506020813d602011610bcf575b81610bb960209383610d99565b81010312610bcb5751906108e161089f565b8980fd5b3d9150610bac565b6040513d8c823e3d90fd5b9094506020813d602011610c12575b81610bfe60209383610d99565b81010312610c0e5751935f610853565b8880fd5b3d9150610bf1565b6040513d8b823e3d90fd5b9091506020813d602011610c55575b81610c4160209383610d99565b81010312610c515751905f610807565b8780fd5b3d9150610c34565b6040513d8a823e3d90fd5b9092506020813d602011610c98575b81610c8460209383610d99565b81010312610c945751915f6107bb565b8680fd5b3d9150610c77565b6040513d89823e3d90fd5b602486634e487b7160e01b81526011600452fd5b8480fd5b600435906001600160a01b038216820361009857565b602435906001600160a01b038216820361009857565b606435906001600160a01b038216820361009857565b35906001600160a01b038216820361009857565b81810292918115918404141715610d2c57565b634e487b7160e01b5f52601160045260245ffd5b91908201809211610d2c57565b6080810190811067ffffffffffffffff821117610d6957604052565b634e487b7160e01b5f52604160045260245ffd5b6040810190811067ffffffffffffffff821117610d6957604052565b90601f8019910116810190811067ffffffffffffffff821117610d6957604052565b81810392915f138015828513169184121617610d2c57565b929493946009860286810460091487151715610d2c57612710900493610df98588610d40565b60408051635d5530df60e11b8082526001600160a01b03888116600484015286811660248401529397948416969195909492936020939284886044818c5afa978815610feb575f98611024575b5085518781526001600160a01b038481166004830152851660248201529885908a9060449082905afa988915610feb575f99610ff5575b5085518781526001600160a01b0385811660048301528416602482015296911691908487604481865afa968715610feb575f97610fba575b5085519081526001600160a01b03918216600482015292166024830152909190819083908180604481015b03915afa928315610fb15750908992915f92610f7e575b50509385936108cc6108cc94610f28600a996108d2966108d2610f2e9b670de0b6b3a7640000809b81998295610d19565b9b610d19565b910581841390818092610f75575b15610f4a5750505060019190565b829492135f14610f5c57505060019190565b9192909115610f6d5750905b5f9190565b905090610f68565b50808513610f3c565b90809350813d8311610faa575b610f958183610d99565b8101031261009c5750518790836108cc610ef7565b503d610f8b565b513d5f823e3d90fd5b90968582813d8311610fe4575b610fd18183610d99565b8101031261009c57505195610ee0610eb5565b503d610fc7565b86513d5f823e3d90fd5b90988582813d831161101d575b61100c8183610d99565b8101031261009c575051975f610e7d565b503d611002565b90978582813d831161104c575b61103b8183610d99565b8101031261009c575051965f610e46565b503d611031565b91908251928382525f5b84811061107d575050825f602080949584010152601f8019910116010190565b60208183018101518483018201520161105d565b5f80916040516110e5816110d760208201947f41304fac000000000000000000000000000000000000000000000000000000008652602060248401526044830190611053565b03601f198101835282610d99565b51906a636f6e736f6c652e6c6f675afa50565b5f919082916110e5604051809261114160208301957fb60e72cc000000000000000000000000000000000000000000000000000000008752604060248501526064840190611053565b90604483015203601f198101835282610d99565b6040519061116282610d4d565b5f6060838281528260208201528260408201520152565b9081602091031261009857518015158103610098579056fea2646970667358221220b2b68a31b2ff8b3ef5ea97dec4bddb2bcbfbdf16b35be339f5b7b617d8759c3264736f6c63430008140033","linkReferences":{}},"methodIdentifiers":{"checkArbitrageOpportunity(address,address,address,address,uint256)":"fa73615b","executeArbitrage(address,address,uint256,address,address,address)":"72bf1a44","executeOperation(address,uint256,uint256,bytes)":"ee872558"},"id":27}