{"abi":[{"type":"constructor","inputs":[],"stateMutability":"nonpayable"},{"type":"function","name":"FEE_DENOMINATOR","inputs":[],"outputs":[{"name":"","type":"uint256","internalType":"uint256"}],"stateMutability":"view"},{"type":"function","name":"FLASH_LOAN_FEE","inputs":[],"outputs":[{"name":"","type":"uint256","internalType":"uint256"}],"stateMutability":"view"},{"type":"function","name":"addLiquidity","inputs":[{"name":"token","type":"address","internalType":"address"},{"name":"amount","type":"uint256","internalType":"uint256"}],"outputs":[],"stateMutability":"nonpayable"},{"type":"function","name":"flashLoan","inputs":[{"name":"token","type":"address","internalType":"address"},{"name":"amount","type":"uint256","internalType":"uint256"},{"name":"params","type":"bytes","internalType":"bytes"}],"outputs":[],"stateMutability":"nonpayable"},{"type":"function","name":"getBalance","inputs":[{"name":"token","type":"address","internalType":"address"}],"outputs":[{"name":"","type":"uint256","internalType":"uint256"}],"stateMutability":"view"},{"type":"function","name":"owner","inputs":[],"outputs":[{"name":"","type":"address","internalType":"address"}],"stateMutability":"view"},{"type":"function","name":"removeLiquidity","inputs":[{"name":"token","type":"address","internalType":"address"},{"name":"amount","type":"uint256","internalType":"uint256"}],"outputs":[],"stateMutability":"nonpayable"},{"type":"function","name":"renounceOwnership","inputs":[],"outputs":[],"stateMutability":"nonpayable"},{"type":"function","name":"tokenBalances","inputs":[{"name":"","type":"address","internalType":"address"}],"outputs":[{"name":"","type":"uint256","internalType":"uint256"}],"stateMutability":"view"},{"type":"function","name":"transferOwnership","inputs":[{"name":"newOwner","type":"address","internalType":"address"}],"outputs":[],"stateMutability":"nonpayable"},{"type":"event","name":"FlashLoan","inputs":[{"name":"token","type":"address","indexed":true,"internalType":"address"},{"name":"borrower","type":"address","indexed":true,"internalType":"address"},{"name":"amount","type":"uint256","indexed":false,"internalType":"uint256"},{"name":"fee","type":"uint256","indexed":false,"internalType":"uint256"}],"anonymous":false},{"type":"event","name":"LiquidityAdded","inputs":[{"name":"token","type":"address","indexed":true,"internalType":"address"},{"name":"provider","type":"address","indexed":true,"internalType":"address"},{"name":"amount","type":"uint256","indexed":false,"internalType":"uint256"}],"anonymous":false},{"type":"event","name":"LiquidityRemoved","inputs":[{"name":"token","type":"address","indexed":true,"internalType":"address"},{"name":"provider","type":"address","indexed":true,"internalType":"address"},{"name":"amount","type":"uint256","indexed":false,"internalType":"uint256"}],"anonymous":false},{"type":"event","name":"OwnershipTransferred","inputs":[{"name":"previousOwner","type":"address","indexed":true,"internalType":"address"},{"name":"newOwner","type":"address","indexed":true,"internalType":"address"}],"anonymous":false},{"type":"error","name":"OwnableInvalidOwner","inputs":[{"name":"owner","type":"address","internalType":"address"}]},{"type":"error","name":"OwnableUnauthorizedAccount","inputs":[{"name":"account","type":"address","internalType":"address"}]}],"bytecode":{"object":"0x60808060405234610078573315610063575f8054336001600160a01b03198216811783556040519290916001600160a01b0316907f8be0079c531659141344cd1fd0a4f28419497f9722a3daafe3b4186f6b6457e09080a3610a3c908161007d8239f35b631e4fbdf760e01b81525f6004820152602490fd5b5f80fdfe6080604081815260049182361015610015575f80fd5b5f92833560e01c918263523fba7f14610870575081635668870014610777578163715018a61461070e5781638da5cb5b146106e85781638ffaacaa146106cc578163a201ccf614610577578163d73792a91461055a578163e0232b421461017a578163f2fde38b146100c9575063f8b2cb4f14610090575f80fd5b346100c55760203660031901126100c557806020926001600160a01b036100b56108a4565b1681526001845220549051908152f35b5080fd5b905034610176576020366003190112610176576100e46108a4565b906100ed6108be565b6001600160a01b0380921692831561014757505082548273ffffffffffffffffffffffffffffffffffffffff198216178455167f8be0079c531659141344cd1fd0a4f28419497f9722a3daafe3b4186f6b6457e08380a380f35b908460249251917f1e4fbdf7000000000000000000000000000000000000000000000000000000008352820152fd5b8280fd5b91905034610176576060366003190112610176576101966108a4565b906024918235936044359067ffffffffffffffff92838311610556573660238401121561055657828201359384116105565736868585010111610556576001600160a01b0316946101e8861515610901565b8615926101f5841561094c565b8689526020936001855288878b2054106105155760098902908982046009141715610503579089612710899594930496885192878486817f70a08231000000000000000000000000000000000000000000000000000000009a8b8252308b8301525afa9384156104f9578c8c888d8c9488996104c2575b505163a9059cbb60e01b815233918101918252602082019390935291929183919082908890829060400103925af180156104b85760a4888f94958f938f8f9996988f99918d92859461049b575b50519a8b998a9889977fee8725580000000000000000000000000000000000000000000000000000000089528801528387015260448601526080606486015282608486015201848401378181018301859052601f01601f19168101030191335af1908115610491578b91610464575b50156104235786519384523083850152848483818b5afa938415610419579086918b956103e0575b509061035b916109e5565b831061039f5750508487526001825283872055825194855284015233927f0d7d75e01ab95780d3cd1c8ec0dd6c2ce19e3a20427eec8bf53283b6fb8e95f09190a380f35b9060156064928588519362461bcd60e51b85528401528201527f466c617368206c6f616e206e6f742072657061696400000000000000000000006044820152fd5b86809296508193503d8311610412575b6103fa8183610997565b8101031261040e575192859061035b610350565b8980fd5b503d6103f0565b87513d8c823e3d90fd5b606483601184888b519362461bcd60e51b85528401528201527f466c617368206c6f616e206661696c65640000000000000000000000000000006044820152fd5b6104849150863d881161048a575b61047c8183610997565b8101906109cd565b5f610328565b503d610472565b88513d8d823e3d90fd5b6104b1908c8d3d1061048a5761047c8183610997565b505f6102b9565b8b513d86823e3d90fd5b98505050505084813d83116104f2575b6104dc8183610997565b8101031261017657925192878c8c888d8761026c565b503d6104d2565b8a513d85823e3d90fd5b828a601186634e487b7160e01b835252fd5b606484601685888b519362461bcd60e51b85528401528201527f496e73756666696369656e74206c6971756964697479000000000000000000006044820152fd5b8780fd5b5050346100c557816003193601126100c557602090516127108152f35b8383346100c557806003193601126100c5576105916108a4565b906001600160a01b03602435926105a66108be565b16906105b3821515610901565b6105be83151561094c565b8184526020906001825283818620541061068a57828552600182528085208054908582039182116106775755805163a9059cbb60e01b815233968101968752602087018590529495829086908190604001038189875af194851561066d577f983e86fda8e7b1e2eae380201830eaf1cac55772e8e39583da349865e8178863939495610650575b50519384523393a380f35b61066690833d851161048a5761047c8183610997565b5086610645565b81513d88823e3d90fd5b60248760118a634e487b7160e01b835252fd5b6064918691519162461bcd60e51b8352820152601460248201527f496e73756666696369656e742062616c616e63650000000000000000000000006044820152fd5b5050346100c557816003193601126100c5576020905160098152f35b5050346100c557816003193601126100c5576001600160a01b0360209254169051908152f35b83346107745780600319360112610774576107276108be565b806001600160a01b03815473ffffffffffffffffffffffffffffffffffffffff1981168355167f8be0079c531659141344cd1fd0a4f28419497f9722a3daafe3b4186f6b6457e08280a380f35b80fd5b9050346101765781600319360112610176576107916108a4565b916001600160a01b036024359316916107ab831515610901565b6107b684151561094c565b8151907f23b872dd000000000000000000000000000000000000000000000000000000008252339082015230602482015283604482015260208160648188875af1801561086657610848575b5081845260016020528084206108198482546109e5565b9055519182527f9d278c56ba6dc86a12eefe6b43112bd6e06648eb4ec0b950ee2d783d40e2acb460203393a380f35b61085f9060203d811161048a5761047c8183610997565b505f610802565b82513d87823e3d90fd5b84908434610176576020366003190112610176576020926001600160a01b036108976108a4565b1681526001845220548152f35b600435906001600160a01b03821682036108ba57565b5f80fd5b6001600160a01b035f541633036108d157565b60246040517f118cdaa7000000000000000000000000000000000000000000000000000000008152336004820152fd5b1561090857565b606460405162461bcd60e51b815260206004820152601560248201527f496e76616c696420746f6b656e206164647265737300000000000000000000006044820152fd5b1561095357565b606460405162461bcd60e51b815260206004820152601d60248201527f416d6f756e74206d7573742062652067726561746572207468616e20300000006044820152fd5b90601f8019910116810190811067ffffffffffffffff8211176109b957604052565b634e487b7160e01b5f52604160045260245ffd5b908160209103126108ba575180151581036108ba5790565b919082018092116109f257565b634e487b7160e01b5f52601160045260245ffdfea2646970667358221220a4e93090d7acf4d3cfbc03a0d5aac40a36b1e84ffeac041b28c93a99a16bb23764736f6c63430008140033","linkReferences":{}},"methodIdentifiers":{"FEE_DENOMINATOR()":"d73792a9","FLASH_LOAN_FEE()":"8ffaacaa","addLiquidity(address,uint256)":"56688700","flashLoan(address,uint256,bytes)":"e0232b42","getBalance(address)":"f8b2cb4f","owner()":"8da5cb5b","removeLiquidity(address,uint256)":"a201ccf6","renounceOwnership()":"715018a6","tokenBalances(address)":"523fba7f","transferOwnership(address)":"f2fde38b"},"id":25}